:100000000C9463000C948B000C948B000C942403D0
:100010000C9424030C9424030C948B000C948B00FC
:100020000C948B000C948B000C948B000C9463024A
:100030000C948B000C948B000C948B000C948B0014
:100040000C9419020C948B000C948B000C948B0074
:100050000C948B000C948B000C948B000C948B00F4
:100060000C9419080C948B00000000002400270059
:100070002A0000000008000201000003040700003D
:1000800000000000000000000000250028002B00F8
:1000900000000000230026002900040404040404D6
:1000A0000404020202020202030303030303010227
:1000B00004081020408001020408102001020408F6
:1000C00010203511290C11241FBECFEFD8E0DEBF60
:1000D000CDBF12E0A0E0B1E0E0E8F7E202C0059099
:1000E0000D92A638B107D9F724E0A6E8B2E001C026
:1000F0001D92AF31B207E1F710E0C2E6D0E004C0D4
:100100002197FE010E94A813C136D107C9F70E94AA
:10011000330C0C94B3130C940000209139033091EC
:100120003A032817390771F4909137038091380307
:10013000981741F0E0913703F0E0E351FD4F8081E3
:1001400090E008958FEF9FEF089508951F93CF9348
:10015000DF93DC015C962D913C915D972115310573
:1001600039F481E090E013969C938E9312973DC0F2
:100170005196ED91FC91529750969C915097892FF2
:1001800080951FB75E964C915E9741FB772770F97B
:1001900041FD6095F8944081772311F0492B01C00F
:1001A00048234083E9012197F1F748E0508160FF3F
:1001B00002C0592B01C058235083E9012197F1F760
:1001C0006695415099F7772321F0908189238083A8
:1001D00003C08081982B90831FBF5C968D919C916A
:1001E0005D970197F1F721E030E0C901DF91CF91F0
:1001F0001F9108952091390330913A032817390748
:1002000071F4809138032091370390E0805C9F4F18
:10021000821B910960E470E00E949413089580E0CD
:1002200090E008952091390330913A032817390757
:10023000B9F49091370380913803981789F0E091D1
:100240003703F0E0E351FD4F80812091370330E028
:100250002F5F3F4F2F7333272093370390E008958C
:100260008FEF9FEF089585ED8093BC008091BC00D7
:1002700084FDFCCF1092630308954091A802262FBD
:1002800030E0240F311D21323105DCF4209163036D
:100290002430C9F4FC0180E090E0861758F43091D6
:1002A000A8022191DC01AA57BD4FA30FB11D2C93C9
:1002B0000196F3CF8091A802680F6093A80280E0B6
:1002C000089581E0089582E008950895E0913C0347
:1002D00080913B03E81730F4F0E0E353FD4F808159
:1002E00090E008958FEF9FEF089590913C038091E7
:1002F0003B03981750F4E92FF0E0E353FD4F2081C2
:1003000030E09F5F90933C0302C02FEF3FEFC901A5
:10031000089580913B0390E020913C03821B91095A
:100320000895CF92DF92EF92FF920F931F93CF9396
:10033000DF937C01262F972F8A0180916403882305
:1003400091F0C62FD72F6E01C40ED51ECC15DD053A
:1003500071F06991D701ED91FC910190F081E02D50
:10036000C7010995F3CF642F822F0E943D01C80178
:10037000DF91CF911F910F91FF90EF90DF90CF9081
:100380000895CF93DF931F92CDB7DEB76983209195
:1003900064032223D1F020918703203240F021E032
:1003A00030E0FC013383228380E090E015C080912F
:1003B0006503E82FF0E0EA59FC4F998190838F5F45
:1003C000809365038093870305C061E0CE010196A9
:1003D0000E943D0181E090E00F90DF91CF91089560
:1003E000089580E090E008953FB7F894809133033A
:1003F00090913403A0913503B091360326B5A89BA4
:1004000005C02F3F19F00196A11DB11D3FBFBA2FA6
:10041000A92F982F8827820F911DA11DB11DBC0106
:10042000CD0142E0660F771F881F991F4A95D1F7CB
:1004300008951F920F920FB60F9211242F933F939E
:100440008F939F93AF93BF9380912F03909130032D
:10045000A0913103B091320330912E0323E0230F9A
:100460002D3720F40196A11DB11D05C026E8230FEC
:100470000296A11DB11D20932E0380932F0390930C
:100480003003A0933103B0933203809133039091F2
:100490003403A0913503B09136030196A11DB11D1F
:1004A0008093330390933403A0933503B0933603C2
:1004B000BF91AF919F918F913F912F910F900FBE60
:1004C0000F901F9018951F920F920FB60F92112444
:1004D0002F933F934F935F936F937F938F939F934C
:1004E000AF93BF93EF93FF9380912D0387FF05C0D8
:1004F00010928500109284001BC020912D03022EC3
:10050000000C330B8091B80390E02817390784F46E
:1005100080912D03082E000C990BFC01EE0FFF1F9C
:100520008E0F9F1FFC01EC56FC4F808186FD15C08D
:1005300080912D038F5F80932D0320912D03022E38
:10054000000C330B8091B80390E028173907C4F4EE
:1005500080912D038C3064F113C080912D03082EFF
:10056000000C990BFC01EE0FFF1F8E0F9F1FFC016B
:10057000EC56FC4F808160E08F730E949E09D8CFBB
:100580008091840090918500049680349C4918F4F1
:1005900080E49CE905C080918400909185000496D8
:1005A00090938900809388008FEF80932D033BC048
:1005B000209184003091850080912D03082E000C3D
:1005C000990BFC01EE0FFF1F8E0F9F1FFC01EC56D5
:1005D000FC4F81819281820F931F909389008093B9
:1005E000880080912D03082E000C990BFC01EE0F62
:1005F000FF1F8E0F9F1FFC01EC56FC4F808186FF72
:1006000012C080912D03082E000C990BFC01EE0FF7
:10061000FF1F8E0F9F1FFC01EC56FC4F808161E095
:100620008F730E949E09FF91EF91BF91AF919F91AF
:100630008F917F916F915F914F913F912F910F908B
:100640000FBE0F901F9018951F920F920FB60F922A
:1006500011242F933F934F935F936F937F938F93C7
:100660009F93AF93BF93EF93FF93E0913903F09182
:100670003A03309709F451C0968DA685B7858585D4
:1006800091FF04C09C91892329F447C09C91892340
:1006900009F043C0A389B4899C91858980958923F9
:1006A0008C93868997890197F1F7608D718DA68566
:1006B000B785558538E020E0CB010197F1F7822F0F
:1006C00090E095958795282F4C91452309F0206857
:1006D000315091F7868D81FD20958091380390E00F
:1006E00001968F73992730913703381749F0A091FD
:1006F0003803B0E0A351BD4F2C938093380303C05F
:10070000868D8160868F828D938D0197F1F7A38905
:10071000B4899C918589892B8C93FF91EF91BF912E
:10072000AF919F918F917F916F915F914F913F9189
:100730002F910F900FBE0F901F901895E0913903E5
:10074000F0913A03E817F90769F4A389B4899C91F9
:100750008589809589238C9310923A0310923903EE
:1007600081E0089580E00895EF92FF920F931F9328
:10077000CF93DF9300D0CDB7DEB7082F142F81E0E1
:10078000809364030093860310926503109287039D
:1007900088E893E029833A830E94C10180E00E94A7
:1007A000EA0A3A812981809163038111FCCF912F5C
:1007B000113208F090E281E080936303809362033A
:1007C0004FEF4093610310926003490F40935F0322
:1007D00080933E0380913E03000F802B80933E0365
:1007E00080913D03813061F410923D0380913E037E
:1007F0008093BB008091BC0083FDF8CF85EC01C0E5
:1008000085EE8093BC00809163038130E1F3809199
:100810006003891710F490916003AFE3B3E04DECEF
:1008200052E0FA018E2F841B891718F48D91819361
:10083000F9CF10923C0390933B03022F79018E2D48
:10084000801B811740F488E893E00E947501F7014E
:1008500081937F01F4CF80E090E00F900F90DF91C3
:10086000CF911F910F91FF90EF900895EF92FF921B
:100870000F931F93CF93DF9300D0CDB7DEB7142F24
:1008800091E0909364038093860310926503109225
:10089000870388E893E029833A830E94C101298174
:1008A000022FE22E3A81F32E8E2D801B811740F409
:1008B000F70161917F0188E893E00E94C101F4CFC4
:1008C00081E00E94EA0A80E090E00F900F90DF91B3
:1008D000CF911F910F91FF90EF9008951F93CF93A9
:1008E000DF931F92CDB7DEB790911C01981759F195
:1008F000882319F090E3998301C0198290910D012A
:10090000992319F099819260998390911B01992301
:1009100019F0998190689983182FA0910001B091E6
:100920000101E0910201F09103019E012F5F3F4F11
:1009300041E057966C9180810E943604009731F413
:1009400010931C0105C080E090E002C08FEF9FEF84
:100950000F90DF91CF911F9108950F931F93CF9325
:10096000DF9300D0CDB7DEB78932910508F051C0D2
:100970008C01892BE9F480E00E946E04198287E0E3
:100980008A83A0910001B0910101E0910201F091F0
:1009900003019E012F5F3F4F42E055966C9180818D
:1009A0000E9436048C01892BA1F510920F0154C0CE
:1009B00081E00E946E040130110511F482E015C03F
:1009C0000230110511F483E010C00630110510F457
:1009D00084E00BC00B30110510F485E006C0053132
:1009E000110510F486E001C087E08983A091000121
:1009F000B0910101E0910201F09103019E012F5F8E
:100A00003F4F41E019966C9180810E943604892BFA
:100A100019F00FEF1FEF20C080E28983A091000141
:100A2000B0910101E0910201F09103019E012F5F5D
:100A30003F4F41E055966C9180810E9436048C01B5
:100A4000892B39F788E0809306011092080181E034
:100A500080930F010E94470BC8010F900F90DF9108
:100A6000CF911F910F9108951F93CF93DF931F9202
:100A7000CDB7DEB790910D01981709F489C0182FF2
:100A8000A0910001B0910101E0910201F0910301F8
:100A90009E012F5F3F4F41E014966C91808111239E
:100AA00059F10E94B403892B19F08FEF9FEF72C0A8
:100AB00089818F7D8983A0910001B0910101E0912E
:100AC0000201F09103019E012F5F3F4F41E0149618
:100AD0006C9180810E943604892B39F763E070E0C5
:100AE00080E090E00E94850A82E0898380911B016A
:100AF000882389F182E82CC00E94B403892BA9F6CF
:100B000080910601998180FF02C0906201C09F7DA3
:100B10009983A0910001B0910101E0910201F0914F
:100B200003019E012F5F3F4F41E014966C9180813D
:100B30000E943604892B09F0B8CF63E070E080E0B2
:100B400090E00E94850A80911B01882319F080E8BB
:100B5000898301C0198280911C01882319F0898141
:100B600080638983A0910001B0910101E0910201AD
:100B7000F09103019E012F5F3F4F41E057966C912A
:100B800080810E943604892B09F08FCF10930D01CC
:100B900080E090E00F90DF91CF911F910895EF9248
:100BA000FF921F93CF93DF9300D0CDB7DEB7182FFE
:100BB000807711F081E005C0112311F01A8202C084
:100BC00080E48A83A0910001B0910101E0910201CB
:100BD000F09103019E012E5F3F4F41E055966C91CD
:100BE00080810E943604892B19F01092060145C0BD
:100BF0008A818F7B8093080116FF02C01A8202C08F
:100C000084E08A8315FD03C08A8182608A8314FD93
:100C100003C08A8181608A8313FD03C08A8188634F
:100C20008A83A0910001B0910101E0910201F0914D
:100C300003019E012E5F3F4F41E056966C918081EB
:100C40000E943604892B89F6812F877F19F080E076
:100C50000E946E04A0910001B0910101E091020197
:100C6000F09103019E012F5F3F4F41E014966C917C
:100C700080810E94B403892B21F0EE24EA94FE2C9B
:100C800045C0898110FF04C091E19A83806203C04E
:100C900090E19A838F7D898390911D0189819923A9
:100CA00011F0806801C08F778983A0910001B09115
:100CB0000101E0910201F09103019E012E5F3F4F7F
:100CC00041E096966C9180810E943604892BA9F6AA
:100CD000A0910001B0910101E0910201F0910301A6
:100CE0009E012F5F3F4F41E014966C9180810E94DE
:100CF00036047C01892B09F61093060110920F012E
:100D000062E370E080E090E00E94850AC7010F90E6
:100D10000F90DF91CF911F91FF90EF900895FC010C
:100D200080910501813059F038F0823059F08330DC
:100D3000C1F480E098E008C080E090E405C080E065
:100D400090E202C080E090E19183808380910E0167
:100D5000882351F080819181969587959183808336
:100D600003C08FEF9FEF089580E090E00895FC01AD
:100D700080910401813079F048F0823089F083302D
:100D8000D1F483E393E3A3E8B1E40EC080E090E004
:100D9000A3E0B3E409C080E090E0A3E8B2E404C0BB
:100DA00083E393E3A3E0B2E480839183A283B383DC
:100DB00080E090E008958FEF9FEF0895CF93DF9349
:100DC0001F92CDB7DEB7BC01892B19F42FEF3FEF8F
:100DD00030C08091090190910A0186179707B0F3FE
:100DE0006536710598F70E94801361506983A09160
:100DF0000001B0910101E0910201F09103019E0117
:100E00002F5F3F4F41E094966C9180810E943604A1
:100E10009C01892BD9F6698170E06F5F7F4F8091CB
:100E2000090190910A010E9480137093220160933E
:100E30002101C9010F90DF91CF910895CF93DF93E6
:100E40001F92CDB7DEB720910601211103C08FEFAD
:100E50009FEF38C08C3B910510F081E014C08236C2
:100E6000910510F082E00FC08A32910510F083E006
:100E70000AC08431910510F084E005C00A9710F093
:100E800085E001C086E089839091070189819817E8
:100E9000B9F0A0910001B0910101E0910201F0913F
:100EA00003019E012F5F3F4F41E012966C918081BC
:100EB0000E943604009759F629812093070102C049
:100EC00080E090E00F90DF91CF910895EF92FF9234
:100ED0000F931F93CF93DF931F92CDB7DEB720916F
:100EE0000601211103C00FEF1FEF5FC020911D010C
:100EF0002111F9CF8C0180910F01882371F0C80175
:100F00000197889730F4C8010E94AD0400E010E01A
:100F10004CC080E090E00E94AD040430110538F030
:100F2000B801093E134028F068EE73E002C064E0A7
:100F300070E038EEE32E33E0F32EC7010E948013F9
:100F400061506983A0910001B0910101E09102011B
:100F5000F09103019E012F5F3F4F41E011966C918C
:100F600080810E9436048C01892B09F0BCCF6981F5
:100F700070E06F5F7F4FC7010E94941370930A0166
:100F8000609309018091210190912201853691059C
:100F900010F084E690E00E94DE06809109019091B5
:100FA0000A01969587950E941E07C8010F90DF9150
:100FB000CF911F910F91FF90EF900895CF93DF9302
:100FC0001F92CDB7DEB790911D01992321F08823A0
:100FD00079F082E00BC090910601992309F18823F2
:100FE00039F080910C0181111EC081E0898301C01C
:100FF0001982A0910001B0910101E0910201F091EC
:1010000003019E012F5F3F4F41E051966C9180811B
:101010000E943604009721F4298120930C0105C019
:101020008FEF9FEF02C080E090E00F90DF91CF91B3
:1010300008951F920F920FB60F9211242F933F9392
:101040004F935F936F937F938F939F93AF93BF93D0
:10105000EF93FF938091B900887F803609F49CC09C
:1010600068F5883209F45BC090F4803109F454C00B
:1010700038F4882309F4F6C0883009F44DC0F6C06E
:10108000883109F44CC0803209F45DC0EFC080346F
:1010900009F468C048F4803309F455C0883309F076
:1010A000E5C080936103D8C0803509F44FC088350E
:1010B00009F45DC0883409F0D9C0D6C0883909F474
:1010C000C7C0A8F4883709F467C038F4883609F433
:1010D00063C0803709F460C0C9C0883809F4B8C05B
:1010E000803909F45FC0803809F0C0C05BC0803B24
:1010F00009F486C038F4803A09F466C0883A09F4E5
:101100007FC0B4C0803C09F4A7C0883C09F4A4C0E7
:10111000883B09F48AC0AAC080913E0310C0909118
:10112000600380915F03981770F5E091600381E0A0
:101130008E0F80936003F0E0E15CFC4F8081809330
:10114000BB0085EC86C0809361038EC0E091600394
:1011500081E08E0F809360038091BB00F0E0E15C42
:10116000FC4F80839091600380915F036EC0E0919B
:10117000600381E08E0F809360038091BB00F0E0FC
:10118000E15CFC4F80838091620381116DC081E03E
:1011900080933D0384EA61C083E0809363031092EF
:1011A000CC02CFCF8091CC02803208F051C0E091C8
:1011B000CC0281E08E0F8093CC028091BB00F0E0E6
:1011C000E455FD4F8083BDCF85EC8093BC00109229
:1011D00063038091CC02803230F4E091CC02F0E0E5
:1011E000E455FD4F10826091CC0270E0E091AA02BC
:1011F000F091AB028CEA92E009951092CC0236C0D5
:1012000084E0809363031092A9021092A802E091F7
:10121000A602F091A70209958091A802811105C04C
:1012200081E08093A80210928602E091A90281E0F9
:101230008E0F8093A902F0E0EA57FD4F80818093E2
:10124000BB009091A9028091A802981708F479CF69
:1012500085E88093BC000AC085EC8093BC001092A6
:10126000630304C0109261030E943301FF91EF9168
:10127000BF91AF919F918F917F916F915F914F91AE
:101280003F912F910F900FBE0F901F9018950F93C5
:101290001F93CF93DF93182FEB0160E00E949E090C
:1012A00083E090E00197F1F761E0812F0E949E09B1
:1012B00083E290E00197F1F760E0812F0E949E09A0
:1012C000CE019927FC01E255FF4F6491FC01E656DF
:1012D000FF4FE491F0E0EE0FFF1FE057FF4F8591C5
:1012E000949100E412E42FE030E0462F0E94E40BDA
:1012F000611571058105910549F0DC01CB0101966D
:10130000A11DB11DBC01CD019F7003C060E070E064
:10131000CB010E94F0112AE939E949EB50E40E941F
:10132000FD1220E030E040E251E40E94FD12DF9126
:10133000CF911F910F9108950E94AE1390E0FC0190
:10134000EE58FF4F3491FC01E255FF4F2491FC0110
:10135000E656FF4FE491EE2309F43BC0332339F105
:10136000333091F038F43130A9F0323001F584B5E2
:101370008F7D12C0373091F03830A1F03430B9F49D
:10138000809180008F7D03C0809180008F77809353
:1013900080000DC084B58F7784BD09C08091B000F6
:1013A0008F7703C08091B0008F7D8093B000F0E014
:1013B000EE0FFF1FEA57FF4FA591B4918FB7F89436
:1013C000EC91611103C020952E2301C02E2B2C938C
:1013D0008FBF0895CF93DF9390E0FC01E255FF4F5C
:1013E0002491FC01E656FF4F8491882361F190E03F
:1013F000880F991FFC01E859FF4FC591D491FC015A
:10140000EA57FF4FA591B491611109C09FB7F894B5
:101410008881209582238883EC912E230BC0623033
:1014200061F49FB7F8943881822F80958323888355
:10143000EC912E2B2C939FBF06C08FB7F894E881B8
:101440002E2B28838FBFDF91CF9108951F93CF93C9
:10145000DF93182FEB0161E00E94EA09209711F455
:1014600060E004C0CF3FD10539F461E0812FDF9106
:10147000CF911F910C949E09E12FF0E0EE58FF4FA1
:10148000E491E330F9F048F4E130B9F0E230A1F54D
:1014900084B5806284BDC8BD34C0E730E9F0E8306F
:1014A00019F1E43049F580918000806280938000DA
:1014B000D0938B00C0938A0024C084B5806884BD1B
:1014C000C7BD1FC080918000806880938000D0934A
:1014D0008900C093880015C08091B0008068809317
:1014E000B000C093B3000DC08091B00080628093C3
:1014F000B000C093B40005C0C038D1050CF0B5CF22
:10150000AFCFDF91CF911F9108958F929F92AF92AD
:10151000BF92CF92DF92EF92FF926B017C010E940B
:10152000F4014B015C01C114D104E104F104F1F0B8
:101530000E94F401DC01CB0188199909AA09BB09B1
:10154000883E9340A105B10570F321E0C21AD1088D
:10155000E108F10888EE880E83E0981EA11CB11CFA
:10156000C114D104E104F10419F7DDCFFF90EF902D
:10157000DF90CF90BF90AF909F908F900895CF92C3
:10158000DF92EF92FF920F931F93CF93DF936C0143
:101590007A018B01C0E0D0E0CE15DF0589F0D801DB
:1015A0006D918D01D601ED91FC910190F081E02DBE
:1015B000C6010995892B11F47E0102C02196ECCF5A
:1015C000C701DF91CF911F910F91FF90EF90DF90B6
:1015D000CF900895382F2091870390918603213270
:1015E00008F049C0809163038111FCCF42E0409331
:1015F0006303309362033FEF309361031092600303
:1016000020935F03A6E6B3E04FE353E0FA013E2FD9
:10161000341B321718F43D913193F9CF10923E03E9
:1016200020913E03990F922B90933E0390913D039E
:10163000913061F410923D0390913E039093BB0072
:101640009091BC0093FDF8CF95EC01C095EE90937E
:10165000BC00909163039230E1F3909161039F3F4E
:1016600079F080916103803241F080916103803391
:1016700031F084E005C081E003C082E001C083E076
:10168000109265031092870310926403089580916D
:101690001D0181110FC080910601882371F0109205
:1016A0000B0180910F01882311F081E001C080E0DF
:1016B0000E94DE0780E090E008958FEF9FEF08958D
:1016C000CF93DF931F92CDB7DEB7809106018111D2
:1016D00003C08FEF9FEF21C01982809105018823FD
:1016E000D1F0A0910001B0910101E0910201F091CF
:1016F00003019E012F5F3F4F41E017966C9180815F
:101700000E943604009729F729812695269526956B
:101710002093050102C080E090E00F90DF91CF910F
:101720000895CF93DF931F92CDB7DEB78091060166
:10173000811103C08FEF9FEF22C088E189838091E0
:1017400004018330D1F0A0910001B0910101E0913A
:101750000201F09103019E012F5F3F4F41E0169679
:101760006C9180810E943604009721F7298126958B
:10177000269526952093040102C080E090E00F900A
:10178000DF91CF910895009769F0FC01019000204E
:10179000E9F73197AF01481B590BBC018DEF93E07E
:1017A0000C94BF0A80E090E00895CF93DF930E94ED
:1017B000C30BEC018FEF91E00E94C30B8C0F9D1FB8
:1017C000DF91CF9108950895CF92DF92EF92FF922B
:1017D0000F931F93E82FF92F05C00150110921091C
:1017E000310961F1908196239417B9F305C0015036
:1017F00011092109310911F1908196239413F7CF32
:10180000C12CD12CE12CF12C0AC08FEFC81AD80AB8
:10181000E80AF80A0C151D052E053F0579F08081B0
:101820008623841791F36C2D7D2D8E2D9F2D1F9176
:101830000F91FF90EF90DF90CF90089560E070E0FF
:1018400080E090E01F910F91FF90EF90DF90CF909C
:10185000089585EA91E09093FE038093FD038DEF58
:1018600093E00C949E03CF93DF93CDB7DEB7A5979B
:101870000FB6F894DEBF0FBECDBF789484B58260FA
:1018800084BD84B5816084BD85B5826085BD85B524
:10189000816085BD80916E00816080936E001092A2
:1018A000810080918100826080938100809181001D
:1018B00081608093810080918000816080938000AE
:1018C0008091B10084608093B1008091B00081600C
:1018D0008093B00080917A00846080937A00809138
:1018E0007A00826080937A0080917A008160809390
:1018F0007A0080917A00806880937A001092C1000B
:1019000080911C048C3008F051C061E087E00E9497
:10191000EA0980911C04E82FF0E09F01220F331F99
:10192000E20FF31FEC56FC4F9081907C9760908300
:1019300010921D0410921E046CE00E9474132CE09F
:10194000829FB001112440E050E09A01260F371F1A
:10195000F901EE0FFF1F2E0F3F1FF901EC56FC4F50
:10196000908196FD16C04F5F5F4F4C30510569F76F
:1019700081110FC01092800082E08093810010924C
:10198000850010928400B19A80916F0082608093EC
:101990006F00E0911C04F0E0CF01880F991FE80F61
:1019A000F91FEC56FC4F80818064808310921804EC
:1019B0001092170410921604109215041092140439
:1019C000109213048DE991E090931A048093190406
:1019D00090910904963108F057C02DEB30E0309318
:1019E0001404209313042BE931E030931604209360
:1019F00015042CE231E03093180420931704209151
:101A00006800983050F031E09E3008F430E081E01A
:101A100001C0880F3A95EAF701C084E0822B8093D9
:101A20006800983038F09E3040F0963148F020E061
:101A300030E008C02DE630E005C02BE630E002C003
:101A40002CE630E03093110420931004983030F4E9
:101A500081E001C0880F9A95EAF70EC0292F30E087
:101A60009E3018F42850310902C02E50310981E00F
:101A700001C0880F2A95EAF7809312048091190417
:101A800090911A040197F1F780911704909118042E
:101A9000892B21F18091390390913A03A3E08D3F86
:101AA0009A07E1F0009711F00E949E0380911B04B9
:101AB0008E7F80931B0410923803109237038DEFB2
:101AC00093E090933A0380933903E0911004F091EE
:101AD0001104908180911204892B808361E08EE053
:101AE0000E94EA0961E08FE00E94EA0961E085E076
:101AF0000E94EA0961E081E10E94EA0961E080E177
:101B00000E94EA0961E083E00E94EA0910923C0326
:101B100010923B03109265031092870310926303A7
:101B200011E01093620310923D0361E082E10E9494
:101B30009E0961E083E10E949E098091B9008E7F39
:101B40008093B9008091B9008D7F8093B90008E43B
:101B50000093B80085E48093BC0080E88983A0915D
:101B60000001B0910101E0910201F09103019E0199
:101B70002F5F3F4F41E055966C9180810E94360463
:101B8000892B19F00FEF1FEFBFC064E670E080E013
:101B900090E00E94850A1982A0910001B091010194
:101BA000E0910201F09103019E012F5F3F4F41E060
:101BB00055966C9180810E943604892B19F71092FA
:101BC0000E010983A0910001B0910101E091020191
:101BD000F09103019E012F5F3F4F41E018966C91F9
:101BE00080810E943604892B69F68FEF809306016D
:101BF0008093040180930501809307012FEF3FEF4D
:101C000030930A012093090180930B0180930D0109
:101C100030932201209321011093080110931B019E
:101C200010921C011092100110920F018AE0E1E164
:101C3000F1E0DF011D928A95E9F710921D011092E3
:101C40001E011092200110921F010E94910B892BFE
:101C500009F098CF0E94600B892B09F093CF8AE29C
:101C600090E00E941E07892B09F08CCF82E390E060
:101C70000E946607892B09F085CF0E94470B892BAC
:101C800009F080CF81E00E9434051CE09E012E5DAA
:101C90003F4F41E060E0812F0E94B403892B19F48B
:101CA0008AA1883421F01F5F103181F722C0109380
:101CB000230100E10AA39E012E5D3F4F41E06AE04F
:101CC000812F0E943604892BA1F461E070E080E04E
:101CD00090E00E94850A8FE18AA39E012E5D3F4F0E
:101CE00041E06AE0809123010E943604892B09F4C7
:101CF000B5C18AE090E00E94DE068C01892B09F0D4
:101D000041CF80E00E94CF05012B09F054C081E053
:101D10000E94340589E70E94CF05CE0101960E94FA
:101D2000B706892B29F489819A81AB81BC8103C0D4
:101D300080E090E0DC018093F5039093F603A0939C
:101D4000F703B093F803CE0101960E948F06892B0A
:101D500019F489819A8102C080E090E09093F403A5
:101D60008093F30383EB91E00E94D50B89E70E94F7
:101D7000CF056C01990FEE08FF08F7FE3FC0E09118
:101D8000FD03F091FE030190F081E02D6DE28DEFF7
:101D900093E0099522273327A9012C193D094E0903
:101DA0005F0919A28E010F5D1F4F7AE0C72ED12C5B
:101DB000E12CF12C13C089EB91E00E94D50B8DED45
:101DC00091E00E94D50B8FEF91E00E94C30B68E871
:101DD00073E180E090E00E94850AEDCFCA01B9016D
:101DE000A70196010E94CC12605DF80162938F01F9
:101DF000211531054105510589F71AC0A701960142
:101E000019A28E010F5D1F4F6AE0C62ED12CE12C66
:101E1000F12CCA01B901A70196010E94CC12605DA4
:101E2000D8016E938D01211531054105510589F7C2
:101E3000C8010E94C30B8FEF91E00E94C30B0E9468
:101E4000910B892BB1F4CE0101960E94B706892B24
:101E500029F489819A81AB81BC8103C080E090E044
:101E6000DC018093F5039093F603A093F703B093FE
:101E7000F8030E94600B892B79F4CE0101960E9431
:101E80008F06892B19F489819A8102C080E090E045
:101E90009093F4038093F30385E090E00E941E0783
:101EA0008AE090E00E9466078AE090E00E94DE06E9
:101EB00080911D0408E810E0081B110987FD1395A7
:101EC000000F111F000F111F6801012E000CEE08FA
:101ED000FF0880911E0428E532E0281B310987FDA8
:101EE0003395220F331F220F331FC901330FAA0B63
:101EF000BB0B9C01AD012C193D094E095F09ADE2F8
:101F0000B0E00E94C11224EB30E040E050E00E94BB
:101F1000A212C20ED31EE41EF51E80911C048C304A
:101F2000B8F4C016D1060CF46801B2E0CB1AD1089F
:101F3000CC0CDD1C2FB7F89490E0FC01EE0FFF1FD6
:101F40008E0F9F1FFC01EC56FC4FD282C1822FBF27
:101F500082E092E00E94D50B8DEF93E00E94FA00A0
:101F6000892BD1F38DEF93E00E9412018734910504
:101F700099F76DE070E08CE090E00E9447096B01FA
:101F80007C0161E080E10E949E0961E08FE00E9497
:101F90009E096DE070E08CE090E00E9447099B0193
:101FA000AC01C701B6010E946F13181654F46EE617
:101FB00070E085E00E94260A6AE570E083E00E94F6
:101FC000260A6DE070E08CE090E00E9447099B01DA
:101FD000AC01C701B6010E94EB1187FF0AC06EE693
:101FE00070E083E00E94260A6AE570E085E00E94C6
:101FF000260A6DE070E08CE090E00E9447099B01AA
:10200000AC01C701B6010E94EB1181110AC06AE55B
:1020100070E085E00E94260A6AE570E083E00E9495
:10202000260A69E070E088E090E00E94470920E01D
:1020300030E040EA50E40E94EB1187FF9ACF60E065
:1020400070E085E00E94260A60E070E083E00E9474
:10205000260A8FE792E00E94D50B8BCF61E070E0FB
:1020600080E090E00E94850A9E012E5D3F4F43E094
:1020700060E1809123010E94B403892B09F039CEDD
:102080008AA190E080589F4F90932501809324016E
:102090008BA190E080589F4F909327018093260159
:1020A0008CA190E080589F4F909329018093280144
:1020B0000AA39E012E5D3F4F41E06AE0809123011B
:1020C0000E943604892B09F014CE61E070E080E0B4
:1020D00090E00E94850A80E00E94340580E48AA393
:1020E000A0910001B0910101E0910201F091030182
:1020F0009E012E5D3F4F41E05A966C9180810E9477
:102100003604892B09F0F5CD8091230180688AA3DC
:10211000A0910001B0910101E0910201F091030151
:102120009E012E5D3F4F41E05E966C9180810E9442
:102130003604892B09F0DDCD82E08AA3A09100014D
:10214000B0910101E0910201F09103019E012E5D29
:102150003F4F41E05F966C9180810E943604892B4D
:1021600009F0C7CD88E88AA3A0910001B0910101D0
:10217000E0910201F09103019E012E5D3F4F41E08D
:1021800090966C9180810E943604892B09F0B1CD24
:10219000809123018AA3A0910001B0910101E091F7
:1021A0000201F09103019E012E5D3F4F41E09196A7
:1021B0006C9180810E943604892B09F09ACD8AE0C7
:1021C0008AA3A0910001B0910101E0910201F09178
:1021D00003019E012E5D3F4F41E092966C918081FC
:1021E0000E943604892B09F084CD81E88AA3A0914E
:1021F0000001B0910101E0910201F09103019E0103
:102200002E5D3F4F41E093966C9180810E94360491
:10221000892B09F06ECD81E18AA3A0910001B091D4
:102220000101E0910201F09103019E012E5D3F4FFB
:1022300041E096966C9180810E943604892B09F0CA
:1022400058CD83E08AA3A0910001B0910101E091F3
:102250000201F09103019E012E5D3F4F41E09796F0
:102260006C9180810E94360444CD10928B031092B1
:102270008A0388EE93E0A0E0B0E080938C03909313
:102280008D03A0938E03B0938F0383E991E0909325
:102290008903809388038091B8038C30A0F491E087
:1022A000980F9093B80380931C0490E0FC01EE0F0C
:1022B000FF1F8E0F9F1FFC01EC56FC4F88EB9BE02D
:1022C0009283818303C08FEF80931C0410920004DB
:1022D0001092FF0388EE93E0A0E0B0E08093010449
:1022E00090930204A0930304B093040485EA91E060
:1022F0009093FE038093FD03109214041092130434
:1023000010921604109215041092180410921704DB
:1023100010921A041092190460911B046E7F6D7F55
:1023200060931B046695617081E068278BE00E94D2
:102330009E0961E08BE00E94EA09E9EBF0E0E4919C
:10234000E0930D04E5EAF0E0E491F0E0EE0FFF1F0A
:10235000EA57FF4F8591949190930F0480930E0458
:1023600060E08AE00E94EA0980911B0481FD04C0BC
:1023700061E08AE00E949E098AE080930904E8EB0C
:10238000F0E0E491E0930A04E4EAF0E0E491F0E0A4
:10239000EE0FFF1FE057FF4F8591949190930C042F
:1023A00080930B048EEA97E4A5EDB0E48093F903E3
:1023B0009093FA03A093FB03B093FC031092F403F1
:1023C0001092F3031092F5031092F6031092F703A4
:1023D0001092F80308950E942D1208F481E00895E8
:1023E000E89409C097FB3EF49095809570956195AF
:1023F0007F4F8F4F9F4F9923A9F0F92F96E9BB2765
:102400009395F695879577956795B795F111F8CFE0
:10241000FAF4BB0F11F460FF1BC06F5F7F4F8F4F4B
:102420009F4F16C0882311F096E911C0772321F041
:102430009EE8872F762F05C0662371F096E8862FD9
:1024400070E060E02AF09A95660F771F881FDAF730
:10245000880F9695879597F90895990F0008550F5D
:10246000AA0BE0E8FEEF16161706E807F907C0F01A
:1024700012161306E407F50798F0621B730B840B22
:10248000950B39F40A2661F0232B242B252B21F4FC
:1024900008950A2609F4A140A6958FEF811D811D9C
:1024A000089597F99F6780E870E060E008959FEFD6
:1024B00080EC089500240A941616170618060906DB
:1024C000089500240A9412161306140605060895AA
:1024D000092E0394000C11F4882352F0BB0F40F432
:1024E000BF2B11F460FF04C06F5F7F4F8F4F9F4F72
:1024F000089557FD9058440F551F59F05F3F71F0F4
:102500004795880F97FB991F61F09F3F79F087955A
:102510000895121613061406551FF2CF4695F1DFE3
:1025200008C0161617061806991FF1CF8695710573
:10253000610508940895E894BB2766277727CB01A7
:1025400097F90895052E97FB1EF400940E94B91286
:1025500057FD07D00E94CC1207FC03D04EF40C9418
:10256000B91250954095309521953F4F4F4F5F4F91
:10257000089590958095709561957F4F8F4F9F4FEF
:1025800008950E94EE12A59F900DB49F900DA49FF8
:10259000800D911D11240895A1E21A2EAA1BBB1BC8
:1025A000FD010DC0AA1FBB1FEE1FFF1FA217B3071F
:1025B000E407F50720F0A21BB30BE40BF50B661F35
:1025C000771F881F991F1A9469F7609570958095F9
:1025D00090959B01AC01BD01CF010895A29FB00170
:1025E000B39FC001A39F700D811D1124911DB29F47
:1025F000700D811D1124911D08950E9411130C94DA
:1026000068120E94611258F00E945A1240F029F498
:102610005F3F29F00C94511251110C949C120C94B0
:1026200057120E94791268F39923B1F3552391F35D
:10263000951B550BBB27AA2762177307840738F031
:102640009F5F5F4F220F331F441FAA1FA9F335D08E
:102650000E2E3AF0E0E832D091505040E695001C42
:10266000CAF72BD0FE2F29D0660F771F881FBB1FFC
:10267000261737074807AB07B0E809F0BB0B802DDA
:10268000BF01FF2793585F4F3AF09E3F510578F006
:102690000C9451120C949C125F3FE4F3983ED4F3D7
:1026A000869577956795B795F7959F5FC9F7880FDA
:1026B000911D9695879597F90895E1E0660F771F2C
:1026C000881FBB1F621773078407BA0720F0621BBD
:1026D000730B840BBA0BEE1F88F7E09508950E94E8
:1026E0002D1208F48FEF0895991B79E004C0991F0B
:1026F000961708F0961B881F7A95C9F7809508955C
:10270000AA1BBB1B51E107C0AA1FBB1FA617B70717
:1027100010F0A61BB70B881F991F5A95A9F7809533
:102720009095BC01CD01089597FB072E16F40094F7
:1027300007D077FD09D00E94801307FC05D03EF436
:10274000909581959F4F0895709561957F4F08955D
:10275000EE0FFF1F0590F491E02D099481E090E0C9
:10276000F8940C94B31310E0C2E6D0E004C0FE016C
:102770000E94A8132196C336D107C9F7F894FFCF5A
:102780006501590100000000000000000000000089
:102790000000000000000000000000000000000039
:1027A000000000000000000000002C018300000079
:1027B0000040000000020000C800C80000A0410066
:1027C0000070420000003F6666663ECDCC2C3F00A4
:1027D00000003F0000003F0A006800048041010043
:1027E000000001331375191A0C6A231B1C1D1E1FD0
:1027F000207274433B4138393A696B6C376F7724E8
:102800006D6E7025262728292A34636467490000E5
:10281000000000C1019101F10165018901750166A6
:102820000100000000A600BF0AF101A500FA001295
:10283000018D00626567696E00556E61626C65208E
:10284000746F20636F6D6D756E6963617465207759
:10285000697468204D50552D393235300043686514
:10286000636B20636F6E6E656374696F6E732C208B
:10287000616E642074727920616761696E2E000D4B
:102880000A005075742074686520726F626F74203E
:10289000696E20746865207374617274206F66209D
:1028A000746865206D617A652C206C6F6F6B696E42
:1028B0006720666F72776F726420696E746F207420
:1028C0006865206D617A652028706172616C6C6545
:1028D0006C20746F2074686520736964652077616B
:1028E0006C6C292E20416674657220796F752064A6
:1028F00069642069742073656E6420274727007718
:06290000616C6C6C6C00C0
:00000001FF
