:100000000C9463000C948B000C948B000C944A05A8
:100010000C944A050C944A050C948B000C948B00AC
:100020000C948B000C948B000C948B000C94890422
:100030000C948B000C948B000C948B000C948B0014
:100040000C943F040C948B000C9462020C94F50BFE
:100050000C948B000C948B000C948B000C948B00F4
:100060000C943F0A0C948B00000000002400270031
:100070002A0000000008000201000003040700003D
:1000800000000000000000000000250028002B00F8
:1000900000000000230026002900040404040404D6
:1000A0000404020202020202030303030303010227
:1000B00004081020408001020408102001020408F6
:1000C00010200B14DC0D11241FBECFEFD8E0DEBFD3
:1000D000CDBF12E0A0E0B1E0E4ECFFE202C0059089
:1000E0000D92AE39B107D9F724E0AEE9B2E001C014
:1000F0001D92A63DB207E1F710E0C2E6D0E004C0D1
:100100002197FE010E94CA17C136D107C9F70E9484
:10011000E60D0C94D5170C940000FC01538D448D12
:10012000252F30E0842F90E0821B930B541710F0A2
:10013000CF96089501970895FC01918D828D9817AF
:1001400061F0828DDF01A80FB11D5D968C91928DBB
:100150009F5F9F73928F90E008958FEF9FEF0895B8
:10016000FC01918D828D981731F0828DE80FF11D81
:10017000858D90E008958FEF9FEF0895FC01918D9C
:10018000228D892F90E0805C9F4F821B91098F7395
:100190009927089580E090E0892B29F00E94EB0BCD
:1001A00081110C94000008953FB7F89480914B039F
:1001B00090914C03A0914D03B0914E0326B5A89B9E
:1001C00005C02F3F19F00196A11DB11D3FBFBA2FE9
:1001D000A92F982F8827820F911DA11DB11DBC0149
:1001E000CD0142E0660F771F881F991F4A95D1F70E
:1001F000089520915103309152032817390771F463
:1002000090914F0380915003981741F0E0914F0374
:10021000F0E0EB5FFC4F808190E008958FEF9FEF5F
:10022000089508951F93CF93DF93DC015C962D9181
:100230003C915D972115310539F481E090E01396EA
:100240009C938E9312973DC05196ED91FC915297DD
:1002500050969C915097892F80951FB75E964C9130
:100260005E9741FB772770F941FD6095F8944081D6
:10027000772311F0492B01C048234083E9012197DE
:10028000F1F748E0508160FF02C0592B01C05823AC
:100290005083E9012197F1F76695415099F777234B
:1002A00021F090818923808303C08081982B9083E3
:1002B0001FBF5C968D919C915D970197F1F721E0AE
:1002C00030E0C901DF91CF911F9108952091510332
:1002D000309152032817390771F48091500320910F
:1002E0004F0390E0805C9F4F821B910960E470E0B7
:1002F0000E94B617089580E090E008952091510380
:100300003091520328173907B9F490914F03809127
:100310005003981789F0E0914F03F0E0EB5FFC4F3A
:10032000808120914F0330E02F5F3F4F2F733327A1
:1003300020934F0390E008958FEF9FEF089585ED90
:100340008093BC008091BC0084FDFCCF10927D03A3
:1003500008954091C002262F30E0240F311D213234
:100360003105DCF420917D032430C9F4FC0180E0E8
:1003700090E0861758F43091C0022191DC01A2561A
:10038000BD4FA30FB11D2C930196F3CF8091C002F6
:10039000680F6093C00280E0089581E0089582E0D4
:1003A00008950895E091540380915303E81730F4C1
:1003B000F0E0EB51FD4F808190E008958FEF9FEFCB
:1003C00008959091540380915303981750F4E92FA6
:1003D000F0E0EB51FD4F208130E09F5F909354039C
:1003E00002C02FEF3FEFC90108958091530390E0C1
:1003F00020915403821B91090895CF92DF92EF92CE
:10040000FF920F931F93CF93DF937C01262F972F9B
:100410008A0180917E03882391F0C62FD72F6E0129
:10042000C40ED51ECC15DD0571F06991D701ED9193
:10043000FC910190F081E02DC7010995F3CF642F65
:10044000822F0E94A901C801DF91CF911F910F91C6
:10045000FF90EF90DF90CF900895CF93DF931F929E
:10046000CDB7DEB7698320917E032223D1F020919E
:10047000A103203240F021E030E0FC0133832283ED
:1004800080E090E015C080917F03E82FF0E0E05815
:10049000FC4F998190838F5F80937F038093A103AA
:1004A00005C061E0CE0101960E94A90181E090E0C3
:1004B0000F90DF91CF910895089580E090E0089526
:1004C0000E94D0171F920F920FB60F9211242F93F4
:1004D0008F939F93EF93FF93E091B203F091B30357
:1004E0008081E091B803F091B90382FD12C0908140
:1004F0008091BB038F5F8F732091BC03821751F0F3
:10050000E091BB03F0E0EE55FC4F958F8093BB0369
:1005100001C08081FF91EF919F918F912F910F905A
:100520000FBE0F901F901895FC01848DDF01A80F5E
:10053000B11DA35ABF4F2C91848D90E001968F730B
:100540009927848FA689B7892C93A089B1898C912A
:1005500080648C93938D848D981306C00288F389F0
:10056000E02D80818F7D80830895EF92FF920F931D
:100570001F93CF93DF93EC0181E0888F9B8D8C8D4F
:10058000981305C0E889F989808185FD24C0F62E7D
:100590000B8D10E00F5F1F4F0F731127E02E8C8D16
:1005A000E8120CC00FB607FCFACFE889F989808100
:1005B00085FFF5CFCE010E949402F1CF8B8DFE0115
:1005C000E80FF11DE35AFF4FF0820B8FEA89FB8998
:1005D0008081806207C0EE89FF896083E889F9899C
:1005E00080818064808381E090E0DF91CF911F91D2
:1005F0000F91FF90EF900895CF93DF93EC01888DDA
:100600008823C9F0EA89FB89808185FD05C0A88916
:10061000B9898C9186FD0FC00FB607FCF5CF80819C
:1006200085FFF2CFA889B9898C9185FFEDCFCE01E6
:100630000E949402E7CFDF91CF91089590E0FC01F2
:10064000EE58FF4F3491FC01E255FF4F2491FC011D
:10065000E656FF4FE491EE2309F43BC0332339F112
:10066000333091F038F43130A9F0323001F584B5EF
:100670008F7D12C0373091F03830A1F03430B9F4AA
:10068000809180008F7D03C0809180008F77809360
:1006900080000DC084B58F7784BD09C08091B00003
:1006A0008F7703C08091B0008F7D8093B000F0E021
:1006B000EE0FFF1FEA57FF4FA591B4918FB7F89443
:1006C000EC91611103C020952E2301C02E2B2C9399
:1006D0008FBF0895CF93DF9390E0FC01E255FF4F69
:1006E0002491FC01E656FF4F8491882361F190E04C
:1006F000880F991FFC01E859FF4FC591D491FC0167
:10070000EA57FF4FA591B491611109C09FB7F894C2
:100710008881209582238883EC912E230BC0623040
:1007200061F49FB7F8943881822F80958323888362
:10073000EC912E2B2C939FBF06C08FB7F894E881C5
:100740002E2B28838FBFDF91CF9108951F93CF93D6
:10075000DF93182FEB0161E00E946A03209711F4E8
:1007600060E004C0CF3FD10539F461E0812FDF9113
:10077000CF911F910C941E03E12FF0E0EE58FF4F34
:10078000E491E330F9F048F4E130B9F0E230A1F55A
:1007900084B5806284BDC8BD34C0E730E9F0E8307C
:1007A00019F1E43049F580918000806280938000E7
:1007B000D0938B00C0938A0024C084B5806884BD28
:1007C000C7BD1FC080918000806880938000D09357
:1007D0008900C093880015C08091B0008068809324
:1007E000B000C093B3000DC08091B00080628093D0
:1007F000B000C093B40005C0C038D1050CF0B5CF2F
:10080000AFCFDF91CF911F9108958F929F92AF92BA
:10081000BF92CF92DF92EF92FF926B017C010E9418
:10082000D4004B015C01C114D104E104F104F1F0E6
:100830000E94D400DC01CB0188199909AA09BB09DF
:10084000883E9340A105B10570F321E0C21AD1089A
:10085000E108F10888EE880E83E0981EA11CB11C07
:10086000C114D104E104F10419F7DDCFFF90EF903A
:10087000DF90CF90BF90AF909F908F9008951F9280
:100880000F920FB60F9211242F933F938F939F9344
:10089000AF93BF938091470390914803A091490380
:1008A000B0914A033091460323E0230F2D3720F403
:1008B0000196A11DB11D05C026E8230F0296A11DBA
:1008C000B11D209346038093470390934803A09360
:1008D0004903B0934A0380914B0390914C03A0913C
:1008E0004D03B0914E030196A11DB11D80934B03A2
:1008F00090934C03A0934D03B0934E03BF91AF91DF
:100900009F918F913F912F910F900FBE0F901F904D
:1009100018951F920F920FB60F9211242F933F93A9
:100920004F935F936F937F938F939F93AF93BF93F7
:10093000EF93FF938091450387FF05C010928500D8
:10094000109284001BC020914503022E000C330B33
:1009500080916F0490E02817390784F48091450353
:10096000082E000C990BFC01EE0FFF1F8E0F9F1F2E
:10097000FC01E55BFB4F808186FD15C0809145033E
:100980008F5F8093450320914503022E000C330BAB
:1009900080916F0490E028173907C4F480914503D3
:1009A0008C3064F113C080914503082E000C990B24
:1009B000FC01EE0FFF1F8E0F9F1FFC01E55BFB4F3D
:1009C000808160E08F730E941E03D8CF80918400E5
:1009D00090918500049680349C4918F480E49CE949
:1009E00005C08091840090918500049690938900C1
:1009F000809388008FEF809345033BC02091840053
:100A00003091850080914503082E000C990BFC0164
:100A1000EE0FFF1F8E0F9F1FFC01E55BFB4F8181D7
:100A20009281820F931F9093890080938800809118
:100A30004503082E000C990BFC01EE0FFF1F8E0FD3
:100A40009F1FFC01E55BFB4F808186FF12C08091F8
:100A50004503082E000C990BFC01EE0FFF1F8E0FB3
:100A60009F1FFC01E55BFB4F808161E08F730E945B
:100A70001E03FF91EF91BF91AF919F918F917F9155
:100A80006F915F914F913F912F910F900FBE0F90FB
:100A90001F9018951F920F920FB60F9211242F934B
:100AA0003F934F935F936F937F938F939F93AF93F6
:100AB000BF93EF93FF93E0915103F091520330976E
:100AC00009F451C0968DA685B785858591FF04C030
:100AD0009C91892329F447C09C91892309F043C044
:100AE000A389B4899C918589809589238C93868973
:100AF00097890197F1F7608D718DA685B78555852A
:100B000038E020E0CB010197F1F7822F90E0959536
:100B10008795282F4C91452309F02068315091F793
:100B2000868D81FD20958091500390E001968F7312
:100B3000992730914F03381749F0A0915003B0E046
:100B4000AB5FBC4F2C938093500303C0868D8160B4
:100B5000868F828D938D0197F1F7A389B4899C913B
:100B60008589892B8C93FF91EF91BF91AF919F91D4
:100B70008F917F916F915F914F913F912F910F9046
:100B80000FBE0F901F901895E0915103F091520302
:100B9000E817F90769F4A389B4899C918589809540
:100BA00089238C93109252031092510381E008958F
:100BB00080E00895EF92FF920F931F93CF93DF93FE
:100BC00000D0CDB7DEB7082F142F81E080937E03CD
:100BD0000093A00310927F031092A1038FE394E08F
:100BE00029833A830E942D0280E00E94460C3A81BC
:100BF000298180917D038111FCCF912F113208F062
:100C000090E281E080937D0380937C034FEF4093DB
:100C10007B0310927A03490F409379038093580322
:100C200080915803000F802B8093580380915703C5
:100C3000813061F410925703809158038093BB0078
:100C40008091BC0083FDF8CF85EC01C085EE8093D8
:100C5000BC0080917D038130E1F380917A03891794
:100C600010F490917A03A9E5B3E045EE52E0FA0161
:100C70008E2F841B891718F48D918193F9CF1092D0
:100C8000540390935303022F79018E2D801B8117FB
:100C900040F48FE394E00E94E101F70181937F012A
:100CA000F4CF80E090E00F900F90DF91CF911F91F3
:100CB0000F91FF90EF900895EF92FF920F931F9383
:100CC000CF93DF9300D0CDB7DEB7142F91E0909390
:100CD0007E038093A00310927F031092A1038FE301
:100CE00094E029833A830E942D022981022FE22E6B
:100CF0003A81F32E8E2D801B811740F4F70161910C
:100D00007F018FE394E00E942D02F4CF81E00E94E6
:100D1000460C80E090E00F900F90DF91CF911F91F3
:100D20000F91FF90EF9008951F93CF93DF931F9241
:100D3000CDB7DEB790911C01981759F1882319F0AF
:100D400090E3998301C0198290910D01992319F0C4
:100D500099819260998390911B01992319F099814F
:100D600090689983182FA0910001B0910101E09142
:100D70000201F09103019E012F5F3F4F41E0579622
:100D80006C9180810E945C06009731F410931C01E5
:100D900005C080E090E002C08FEF9FEF0F90DF91E1
:100DA000CF911F9108950F931F93CF93DF9300D09E
:100DB000CDB7DEB78932910508F051C08C01892B7F
:100DC000E9F480E00E949406198287E08A83A0916A
:100DD0000001B0910101E0910201F09103019E0137
:100DE0002F5F3F4F42E055966C9180810E945C06D8
:100DF0008C01892BA1F510920F0154C081E00E9453
:100E000094060130110511F482E015C0023011057D
:100E100011F483E010C00630110510F484E00BC01B
:100E20000B30110510F485E006C00531110510F4F2
:100E300086E001C087E08983A0910001B0910101A3
:100E4000E0910201F09103019E012F5F3F4F41E0CD
:100E500019966C9180810E945C06892B19F00FEF26
:100E60001FEF20C080E28983A0910001B0910101B1
:100E7000E0910201F09103019E012F5F3F4F41E09D
:100E800055966C9180810E945C068C01892B39F704
:100E900088E0809306011092080181E080930F01A1
:100EA0000E94A30CC8010F900F90DF91CF911F916A
:100EB0000F9108951F93CF93DF931F92CDB7DEB7A5
:100EC00090910D01981709F489C0182FA091000185
:100ED000B0910101E0910201F09103019E012F5FA9
:100EE0003F4F41E014966C918081112359F10E948B
:100EF000DA05892B19F08FEF9FEF72C089818F7D02
:100F00008983A0910001B0910101E0910201F0916B
:100F100003019E012F5F3F4F41E014966C91808149
:100F20000E945C06892B39F763E070E080E090E076
:100F30000E94050482E0898380911B01882389F146
:100F400082E82CC00E94DA05892BA9F6809106015F
:100F5000998180FF02C0906201C09F7D9983A0911A
:100F60000001B0910101E0910201F09103019E01A5
:100F70002F5F3F4F41E014966C9180810E945C0688
:100F8000892B09F0B8CF63E070E080E090E00E9428
:100F9000050480911B01882319F080E8898301C032
:100FA000198280911C01882319F0898180638983CB
:100FB000A0910001B0910101E0910201F0910301C3
:100FC0009E012F5F3F4F41E057966C9180810E94B8
:100FD0005C06892B09F08FCF10930D0180E090E023
:100FE0000F90DF91CF911F910895EF92FF921F9381
:100FF000CF93DF9300D0CDB7DEB7182F807711F0F5
:1010000081E005C0112311F01A8202C080E48A83B6
:10101000A0910001B0910101E0910201F091030162
:101020009E012E5F3F4F41E055966C9180810E945A
:101030005C06892B19F01092060145C08A818F7BCE
:101040008093080116FF02C01A8202C084E08A83DE
:1010500015FD03C08A8182608A8314FD03C08A81E2
:1010600081608A8313FD03C08A8188638A83A0918B
:101070000001B0910101E0910201F09103019E0194
:101080002E5F3F4F41E056966C9180810E945C0636
:10109000892B89F6812F877F19F080E00E949406C2
:1010A000A0910001B0910101E0910201F0910301D2
:1010B0009E012F5F3F4F41E014966C9180810E940A
:1010C000DA05892B21F0EE24EA94FE2C45C08981B3
:1010D00010FF04C091E19A83806203C090E19A837B
:1010E0008F7D898390911D018981992311F08068FA
:1010F00001C08F778983A0910001B0910101E09137
:101100000201F09103019E012E5F3F4F41E0969650
:101110006C9180810E945C06892BA9F6A091000148
:10112000B0910101E0910201F09103019E012F5F56
:101130003F4F41E014966C9180810E945C067C01D7
:10114000892B09F61093060110920F0162E370E0FB
:1011500080E090E00E940504C7010F900F90DF919E
:10116000CF911F91FF90EF900895FC0180910501B0
:10117000813059F038F0823059F08330C1F480E08A
:1011800098E008C080E090E405C080E090E202C0F2
:1011900080E090E19183808380910E01882351F05B
:1011A00080819181969587959183808303C08FEF8D
:1011B0009FEF089580E090E00895FC018091040184
:1011C000813079F048F0823089F08330D1F483E3C4
:1011D00093E3A3E8B1E40EC080E090E0A3E0B3E4C1
:1011E00009C080E090E0A3E8B2E404C083E393E3A5
:1011F000A3E0B2E480839183A283B38380E090E094
:1012000008958FEF9FEF0895CF93DF931F92CDB78F
:10121000DEB7BC01892B19F42FEF3FEF30C080916E
:10122000090190910A0186179707B0F36536710599
:1012300098F70E94A21761506983A0910001B091B4
:101240000101E0910201F09103019E012F5F3F4FE8
:1012500041E094966C9180810E945C069C01892BF0
:10126000D9F6698170E06F5F7F4F8091090190919D
:101270000A010E94A2177093220160932101C90103
:101280000F90DF91CF910895CF93DF931F92CDB749
:10129000DEB720910601211103C08FEF9FEF38C008
:1012A0008C3B910510F081E014C08236910510F05E
:1012B00082E00FC08A32910510F083E00AC08431C9
:1012C000910510F084E005C00A9710F085E001C098
:1012D00086E089839091070189819817B9F0A091E0
:1012E0000001B0910101E0910201F09103019E0122
:1012F0002F5F3F4F41E012966C9180810E945C0607
:10130000009759F629812093070102C080E090E000
:101310000F90DF91CF910895EF92FF920F931F935B
:10132000CF93DF931F92CDB7DEB720910601211135
:1013300003C00FEF1FEF5FC020911D012111F9CFF6
:101340008C0180910F01882371F0C8010197889763
:1013500030F4C8010E94D30600E010E04CC080E0E9
:1013600090E00E94D3060430110538F0B801093E20
:10137000134028F068EE73E002C064E070E038EEDD
:10138000E32E33E0F32EC7010E94A2176150698358
:10139000A0910001B0910101E0910201F0910301DF
:1013A0009E012F5F3F4F41E011966C9180810E941A
:1013B0005C068C01892B09F0BCCF698170E06F5FFE
:1013C0007F4FC7010E94B61770930A01609309010D
:1013D00080912101909122018536910510F084E6DB
:1013E00090E00E9404098091090190910A0196956C
:1013F00087950E944409C8010F90DF91CF911F91FA
:101400000F91FF90EF900895CF93DF931F92CDB788
:10141000DEB790911D01992321F0882379F082E0B5
:101420000BC090910601992309F1882339F080912E
:101430000C0181111EC081E0898301C01982A09135
:101440000001B0910101E0910201F09103019E01C0
:101450002F5F3F4F41E051966C9180810E945C0666
:10146000009721F4298120930C0105C08FEF9FEF95
:1014700002C080E090E00F90DF91CF9108951F921D
:101480000F920FB60F9211242F933F934F935F93B8
:101490006F937F938F939F93AF93BF93EF93FF933C
:1014A0008091B900887F803609F49CC068F5883245
:1014B00009F45BC090F4803109F454C038F48823F7
:1014C00009F4F6C0883009F44DC0F6C0883109F43B
:1014D0004CC0803209F45DC0EFC0803409F468C0AC
:1014E00048F4803309F455C0883309F0E5C080938F
:1014F0007B03D8C0803509F44FC0883509F45DC03E
:10150000883409F0D9C0D6C0883909F4C7C0A8F416
:10151000883709F467C038F4883609F463C0803727
:1015200009F460C0C9C0883809F4B8C0803909F42A
:101530005FC0803809F0C0C05BC0803B09F486C042
:1015400038F4803A09F466C0883A09F47FC0B4C020
:10155000803C09F4A7C0883C09F4A4C0883B09F486
:101560008AC0AAC08091580310C090917A038091DC
:101570007903981770F5E0917A0381E08E0F8093DC
:101580007A03F0E0E75AFC4F80818093BB0085EC42
:1015900086C080937B038EC0E0917A0381E08E0F3A
:1015A00080937A038091BB00F0E0E75AFC4F808380
:1015B00090917A03809179036EC0E0917A0381E083
:1015C0008E0F80937A038091BB00F0E0E75AFC4FC6
:1015D000808380917C0381116DC081E080935703EB
:1015E00084EA61C083E080937D031092E402CFCF50
:1015F0008091E402803208F051C0E091E40281E081
:101600008E0F8093E4028091BB00F0E0EC53FD4F1D
:101610008083BDCF85EC8093BC0010927D038091C8
:10162000E402803230F4E091E402F0E0EC53FD4F4C
:1016300010826091E40270E0E091C202F091C30276
:1016400084EC92E009951092E40236C084E0809325
:101650007D031092C1021092C002E091BE02F0918F
:10166000BF0209958091C002811105C081E080937D
:10167000C00210929E02E091C10281E08E0F809321
:10168000C102F0E0E256FD4F80818093BB00909153
:10169000C1028091C002981708F479CF85E8809341
:1016A000BC000AC085EC8093BC0010927D0304C08E
:1016B00010927B030E949F01FF91EF91BF91AF9128
:1016C0009F918F917F916F915F914F913F912F915A
:1016D0000F900FBE0F901F9018958F929F92AF9210
:1016E000BF92CF92DF92EF92FF920F931F93CF930F
:1016F000DF93B82EEB0169017A0160E00E941E03BE
:1017000083E090E00197F1F761E08B2D0E941E03CA
:1017100083E290E00197F1F760E08B2D0E941E03B9
:10172000CE019927FC01E255FF4F6491FC01E6567A
:10173000FF4FE491F0E0EE0FFF1FE057FF4F859160
:10174000949100E412E42FE030E0462F0E94970DC0
:10175000611571058105910551F0DC01CB01019600
:10176000A11DB11D4C015D012FE0B22203C0812CEF
:10177000912C540120E030E040E05FE3C701B60166
:101780000E9465156B017C01C501B4010E9404151E
:101790002AE939E949EB50E40E94EB1620E030E0F9
:1017A00040E251E40E94EB1620E030E040E05FE3CD
:1017B0000E946515A70196010E947F16DF91CF91C7
:1017C0001F910F91FF90EF90DF90CF90BF90AF905F
:1017D0009F908F90089582EA93E00E94BE0021E0DE
:1017E000892B09F420E0822F08951F920F920FB6E3
:1017F0000F9211242F933F934F935F936F937F9397
:101800008F939F93AF93BF93EF93FF9382EA93E0FD
:101810000E949402FF91EF91BF91AF919F918F91A0
:101820007F916F915F914F913F912F910F900FBEDC
:101830000F901F901895CF92DF92EF92FF920F9327
:101840001F93CF93DF936C017A018B01C0E0D0E04E
:10185000CE15DF0589F0D8016D918D01D601ED918E
:10186000FC910190F081E02DC6010995892B11F4BE
:101870007E0102C02196ECCFC701DF91CF911F916D
:101880000F91FF90EF90DF90CF900895382F209127
:10189000A1039091A003213208F049C080917D03FB
:1018A0008111FCCF42E040937D0330937C033FEFF6
:1018B00030937B0310927A0320937903A0E8B3E07E
:1018C00049E553E0FA013E2F341B321718F43D91DD
:1018D0003193F9CF1092580320915803990F922B0E
:1018E0009093580390915703913061F410925703ED
:1018F000909158039093BB009091BC0093FDF8CF5A
:1019000095EC01C095EE9093BC0090917D039230D0
:10191000E1F390917B039F3F79F080917B038032CC
:1019200041F080917B03803331F084E005C081E099
:1019300003C082E001C083E010927F031092A103F4
:1019400010927E03089580911D0181110FC0809136
:101950000601882371F010920B0180910F018823FA
:1019600011F081E001C080E00E94040A80E090E074
:1019700008958FEF9FEF0895CF93DF931F92CDB718
:10198000DEB780910601811103C08FEF9FEF21C068
:101990001982809105018823D1F0A0910001B091B6
:1019A0000101E0910201F09103019E012F5F3F4F81
:1019B00041E017966C9180810E945C06009729F7A0
:1019C00029812695269526952093050102C080E061
:1019D00090E00F90DF91CF910895CF93DF931F9206
:1019E000CDB7DEB780910601811103C08FEF9FEF65
:1019F00022C088E18983809104018330D1F0A091D5
:101A00000001B0910101E0910201F09103019E01FA
:101A10002F5F3F4F41E016966C9180810E945C06DB
:101A2000009721F729812695269526952093040174
:101A300002C080E090E00F90DF91CF910895E09197
:101A4000B404F091B5040190F081E02D682F84EB8F
:101A500094E0099408956115710579F0FB010190F6
:101A60000020E9F73197AF01461B570BDC01ED91E0
:101A7000FC910280F381E02D099480E090E00895CC
:101A80008F929F92AF92BF920F931F93CF93DF934A
:101A9000CDB7DEB7A1970FB6F894DEBF0FBECDBFAE
:101AA00019A2423008F44AE08E010F5D1F4F842EC8
:101AB000912CA12CB12CA50194010E944D16E62F6A
:101AC000B901CA0101501109EA3014F4E05D01C006
:101AD000E95CD801EC93232B242B252B61F7B8016B
:101AE00084EB94E00E942B0DA1960FB6F894DEBF14
:101AF0000FBECDBFDF91CF911F910F91BF90AF90DF
:101B00009F908F9008950F931F93CF93DF93EC01D5
:101B10000E942B0D8C0161E172E0CE010E942B0D21
:101B2000800F911FDF91CF911F910F910895CF9258
:101B3000DF92EF92FF920F931F93E82FF92F05C0CA
:101B4000015011092109310961F1908196239417FF
:101B5000B9F305C0015011092109310911F1908132
:101B600096239413F7CFC12CD12CE12CF12C0AC071
:101B70008FEFC81AD80AE80AF80A0C151D052E05B9
:101B80003F0579F080818623841791F36C2D7D2D9C
:101B90008E2D9F2D1F910F91FF90EF90DF90CF9092
:101BA000089560E070E080E090E01F910F91FF9059
:101BB000EF90DF90CF90089587EB91E09093B5047C
:101BC0008093B40484EB94E00C94C405CF93DF932A
:101BD000CDB7DEB72E970FB6F894DEBF0FBECDBFE0
:101BE000789484B5826084BD84B5816084BD85B5F8
:101BF000826085BD85B5816085BD80916E00816004
:101C000080936E00109281008091810082608093A9
:101C100081008091810081608093810080918000AB
:101C20008160809380008091B10084608093B100D6
:101C30008091B00081608093B00080917A008460D0
:101C400080937A0080917A00826080937A008091FC
:101C50007A00816080937A0080917A008068809316
:101C60007A001092C1008091D3048C3008F051C0EA
:101C700061E087E00E946A038091D304E82FF0E0DE
:101C80009F01220F331FE20FF31FE55BFB4F908193
:101C9000907C976090831092D4041092D5046CE0ED
:101CA0000E9496172CE0829FB001112440E050E082
:101CB0009A01260F371FF901EE0FFF1F2E0F3F1F4E
:101CC000F901E55BFB4F908196FD16C04F5F5F4FBA
:101CD0004C30510569F781110FC01092800082E0ED
:101CE000809381001092850010928400B19A8091B7
:101CF0006F00826080936F00E091D304F0E0CF0129
:101D0000880F991FE80FF91FE55BFB4F8081806406
:101D100080831092CF041092CE041092CD041092C2
:101D2000CC041092CB041092CA048DE991E09093F8
:101D3000D1048093D0049091C004963108F057C02C
:101D40002DEB30E03093CB042093CA042BE931E033
:101D50003093CD042093CC042CE231E03093CF04B7
:101D60002093CE0420916800983050F031E09E30EE
:101D700008F430E081E001C0880F3A95EAF701C02D
:101D800084E0822B80936800983038F09E3040F0D9
:101D9000963148F020E030E008C02DE630E005C084
:101DA0002BE630E002C02CE630E03093C8042093EC
:101DB000C704983030F481E001C0880F9A95EAF7A3
:101DC0000EC0292F30E09E3018F42850310902C08F
:101DD0002E50310981E001C0880F2A95EAF78093DF
:101DE000C9048091D0049091D1040197F1F78091BA
:101DF000CE049091CF04892B21F1809151039091D1
:101E00005203A4E0843B9A07E1F0009711F00E948E
:101E1000C4058091D2048E7F8093D2041092500327
:101E200010924F0384EB94E09093520380935103FC
:101E3000E091C704F091C80490818091C904892B76
:101E40008083E091B203F091B30382E08083E0915C
:101E5000AE03F091AF031082E091B003F091B103B3
:101E60008FEC80831092BA03E091B603F091B70330
:101E700086E08083E091B403F091B50380818061B6
:101E80008083E091B403F091B50380818860808302
:101E9000E091B403F091B503808180688083E09184
:101EA000B403F091B50380818F7D808361E08EE083
:101EB0000E946A0361E08FE00E946A0361E085E0AE
:101EC0000E946A0361E081E10E946A0361E080E1AF
:101ED0000E946A0361E083E00E946A0360E089E097
:101EE0000E946A0361E088E00E946A0360E08DE07E
:101EF0000E946A0361E08CE00E946A03109254031E
:101F00001092530310927F031092A10310927D034D
:101F100011E010937C031092570361E082E10E946C
:101F20001E0361E083E10E941E038091B9008E7F51
:101F30008093B9008091B9008D7F8093B90008E447
:101F40000093B80085E48093BC0080E88983A09169
:101F50000001B0910101E0910201F09103019E01A5
:101F60002F5F3F4F41E055966C9180810E945C0647
:101F7000892B19F00FEF1FEFBFC064E670E080E01F
:101F800090E00E9405041982A0910001B091010126
:101F9000E0910201F09103019E012F5F3F4F41E06C
:101FA00055966C9180810E945C06892B19F71092DE
:101FB0000E010983A0910001B0910101E09102019D
:101FC000F09103019E012F5F3F4F41E018966C9105
:101FD00080810E945C06892B69F68FEF8093060151
:101FE0008093040180930501809307012FEF3FEF59
:101FF00030930A012093090180930B0180930D0116
:1020000030932201209321011093080110931B01AA
:1020100010921C011092100110920F018AE0E1E170
:10202000F1E0DF011D928A95E9F710921D011092EF
:102030001E011092200110921F010E94ED0C892BAD
:1020400009F098CF0E94BC0C892B09F093CF8AE24B
:1020500090E00E944409892B09F08CCF82E390E044
:102060000E948C09892B09F085CF0E94A30C892B33
:1020700009F080CF81E00E945A071CE09E01295F91
:102080003F4F41E060E0812F0E94DA05892B19F46F
:102090008F81883421F01F5F103181F722C01093A7
:1020A000230100E10F839E01295F3F4F41E06AE079
:1020B000812F0E945C06892BA1F461E070E080E032
:1020C00090E00E9405048FE18F839E01295F3F4FBE
:1020D00041E06AE0809123010E945C06892B09F4AB
:1020E00093C28AE090E00E9404098C01892B09F0D8
:1020F00041CF80E00E94F507012B09F046C081E046
:102100000E945A0789E70E94F507CE0101960E94B6
:10211000DD08892B29F489819A81AB81BC8103C0B8
:1021200080E090E0DC018093AC049093AD04A09338
:10213000AE04B093AF04CE0101960E94B508892B7E
:1021400019F489819A8102C080E090E09093AB04F9
:102150008093AA0465EC71E082EA93E00E94830D0B
:1021600089E70E94F5076C01990FEE08FF08F7FE5A
:1021700025C08DE20E941F0D66277727CB016C19C1
:102180007D098E099F094AE01CC06BEC71E084EB6D
:1021900094E00E94830D6FEE71E084EB94E00E9466
:1021A000830D61E172E084EB94E00E942B0D68E8FE
:1021B00073E180E090E00E940504E7CF4AE0C701A8
:1021C000B6010E94400D61E172E084EB94E00E9450
:1021D0002B0D0E94ED0C892BB1F4CE0101960E94CB
:1021E000DD08892B29F489819A81AB81BC8103C0E8
:1021F00080E090E0DC018093AC049093AD04A09368
:10220000AE04B093AF040E94BC0C892B79F4CE01CC
:1022100001960E94B508892B19F489819A8102C020
:1022200080E090E09093AB048093AA0485E090E076
:102230000E9444098AE090E00E948C098AE090E0C4
:102240000E94040968E5262E62E0362E809155032F
:1022500090915603892B09F0D4C18091D5049091B7
:10226000D404B090D304BBE0BB1508F448C008E820
:1022700010E0091B110997FD1395000F111F000FA6
:10228000111F6801012E000CEE08FF089101281BA8
:10229000310987FD3395220F331F220F331FC901E8
:1022A000330FAA0BBB0B9C01AD012C193D094E0944
:1022B0005F09ADE2B0E00E94421624EB30E040E05E
:1022C00050E00E942316C20ED31EE41EF51EC01657
:1022D000D1060CF4680122E0C21AD108CC0CDD1C36
:1022E0002FB7F8948B2D90E0FC01EE0FFF1F8E0F9F
:1022F0009F1FFC01E55BFB4FD282C1822FBF64E1CF
:1023000072E084EB94E00E94830D1B861C861D8680
:102310001E8684EB94E00E946601892B09F46AC151
:1023200084EB94E00E947E018734910509F062C13C
:10233000C12CD12C760104E610E020E030E0A901A8
:102340006DE070E08CE090E00E946D0B9B01AC01B1
:10235000C701B6010E947F1620E030E040E05FE355
:102360000E9465156B017C010150110931F74B0189
:102370005C019B01AC010E949117882319F061E96F
:1023800072E01AC026013701E89477F82FEF3FEF8B
:102390004FE75FE7C301B2010E949117811111C09D
:1023A0002FEF3FEF4FE75FE7C301B2010E94FF1439
:1023B00018163CF465E972E084EB94E00E942B0D62
:1023C00074C02FEF3FEF4FE75FE4C701B6010E94F3
:1023D0008C1718161CF469E972E0EECF2FEF3FEF6F
:1023E0004FE75FECC701B6010E94FF1487FDF3CFF2
:1023F00020E030E0A901C701B6010E94FF1487FF69
:1024000009C08DE20E941F0D46015701B7FAB09432
:10241000B7F8B0942AE037ED43EA5BE3C501B401B5
:102420000E947F162B013C010E945D174B015C014D
:102430000E9404159B01AC01C301B2010E947E16EB
:102440002B013C014AE0C501B4010E94400D8EE21F
:102450000E941F0D20E030E040E251E4C301B201D0
:102460000E9465154B015C010E945D172B01612CD8
:10247000712C4AE0C301B2010E94400DC301B201B8
:102480000E9404159B01AC01C501B4010E947E1697
:1024900020E030E040E251E40E9465150E945D17A3
:1024A00080E090E04AE00E94400D61E172E084EB40
:1024B00094E00E942B0D61E080E10E941E0361E028
:1024C0008FE00E941E0320E030E0A9016DE070E083
:1024D0008CE090E00E946D0BA70196010E948C1782
:1024E000181654F466E970E085E00E94A60360E5E2
:1024F00070E083E00E94A60320E030E0A9016DE0D7
:1025000070E08CE090E00E946D0BA70196010E94A4
:10251000FF1487FF0AC062E870E083E00E94A60310
:1025200060E570E085E00E94A60320E030E0A901AC
:102530006DE070E08CE090E00E946D0B9B01AC01BF
:10254000C701B6010E94FF1481110AC06AE570E05C
:1025500085E00E94A6036AE570E083E00E94A6037E
:1025600020E030E0A90169E070E088E090E00E949E
:102570006D0B20E030E040EA50E40E94FF1487FF3A
:10258000A2CF0AE010E02B853C854D855E8569E091
:1025900070E088E090E00E946D0B20E030E040E0C9
:1025A0005FE30E9465156B877C878D879E8701504E
:1025B000110949F720E030E040EA50E40E94FF149E
:1025C00087FF81CF60E070E085E00E94A60360E0B5
:1025D00070E083E00E94A60360E080E10E941E0399
:1025E00060E08FE00E941E0381E090E0909356032C
:1025F000809355038091550390915603892B09F4DC
:1026000088CE0E94CA0022CE61E070E080E090E0B7
:102610000E9405049E01295F3F4F43E060E18091E5
:1026200023010E94DA05892B09F05BCD8F8190E0B0
:1026300080589F4F9093250180932401888590E0D6
:1026400080589F4F9093270180932601898590E0C1
:1026500080589F4F90932901809328010F839E01FA
:10266000295F3F4F41E06AE0809123010E945C06B0
:10267000892B09F036CD61E070E080E090E00E94A7
:10268000050480E00E945A0780E48F83A091000136
:10269000B0910101E0910201F09103019E01295FD7
:1026A0003F4F41E05A966C9180810E945C06892BD5
:1026B00009F017CD8091230180688F83A0910001DC
:1026C000B0910101E0910201F09103019E01295FA7
:1026D0003F4F41E05E966C9180810E945C06892BA1
:1026E00009F0FFCC82E08F83A0910001B09101013D
:1026F000E0910201F09103019E01295F3F4F41E00B
:102700005F966C9180810E945C06892B09F0E9CC70
:1027100088E88F83A0910001B0910101E09102014E
:10272000F09103019E01295F3F4F41E090966C912B
:1027300080810E945C06892B09F0D3CC8091230113
:102740008F83A0910001B0910101E0910201F0910D
:1027500003019E01295F3F4F41E091966C9180817A
:102760000E945C06892B09F0BCCC8AE08F83A09183
:102770000001B0910101E0910201F09103019E017D
:10278000295F3F4F41E092966C9180810E945C06E8
:10279000892B09F0A6CC81E88F83A0910001B0912C
:1027A0000101E0910201F09103019E01295F3F4F79
:1027B00041E093966C9180810E945C06892B09F020
:1027C00090CC81E18F83A0910001B0910101E09153
:1027D0000201F09103019E01295F3F4F41E096966F
:1027E0006C9180810E945C06892B09F07ACC83E091
:1027F0008F83A0910001B0910101E0910201F0915D
:1028000003019E01295F3F4F41E097966C918081C3
:102810000E945C0666CC1092A5031092A40388EE79
:1028200093E0A0E0B0E08093A6039093A703A09369
:10283000A803B093A90323E931E03093A3032093C5
:10284000A20325EC30E03093AF032093AE0324ECD9
:1028500030E03093B1032093B00320EC30E03093AC
:10286000B3032093B20321EC30E03093B5032093FF
:10287000B40322EC30E03093B7032093B60326EC88
:1028800030E03093B9032093B8031092BB03109249
:10289000BC031092BD031092BE031092420410922A
:1028A00041048093430490934404A0934504B0935F
:1028B000460485EA91E09093400480933F04809120
:1028C0006F048C30A0F491E0980F90936F04809384
:1028D000D30490E0FC01EE0FFF1F8E0F9F1FFC0141
:1028E000E55BFB4F88EB9BE09283818303C08FEF16
:1028F0008093D3041092B7041092B60488EE93E04C
:10290000A0E0B0E08093B8049093B904A093BA0417
:10291000B093BB0487EB91E09093B5048093B4042B
:102920001092CB041092CA041092CD041092CC04E1
:102930001092CF041092CE041092D1041092D004C1
:102940006091D2046E7F6D7F6093D2046695617052
:1029500081E068278BE00E941E0361E08BE00E940B
:102960006A03E9EBF0E0E491E093C404E5EAF0E007
:10297000E491F0E0EE0FFF1FEA57FF4F859194912D
:102980009093C6048093C50460E08AE00E946A03C5
:102990008091D20481FD04C061E08AE00E941E03A0
:1029A0008AE08093C004E8EBF0E0E491E093C10496
:1029B000E4EAF0E0E491F0E0EE0FFF1FE057FF4F94
:1029C000859194919093C3048093C2048EEA97E416
:1029D000A5EDB0E48093B0049093B104A093B20449
:1029E000B093B3041092AB041092AA041092AC04FA
:1029F0001092AD041092AE041092AF0408950E949C
:102A0000411508F481E00895E89409C097FB3EF46D
:102A100090958095709561957F4F8F4F9F4F99232B
:102A2000A9F0F92F96E9BB279395F69587957795A9
:102A30006795B795F111F8CFFAF4BB0F11F460FF69
:102A40001BC06F5F7F4F8F4F9F4F16C0882311F0C1
:102A500096E911C0772321F09EE8872F762F05C0D5
:102A6000662371F096E8862F70E060E02AF09A9570
:102A7000660F771F881FDAF7880F9695879597F965
:102A80000895990F0008550FAA0BE0E8FEEF1616FF
:102A90001706E807F907C0F012161306E407F50752
:102AA00098F0621B730B840B950B39F40A2661F0C6
:102AB000232B242B252B21F408950A2609F4A14069
:102AC000A6958FEF811D811D08950E9478150C94A5
:102AD000E9150E94DB1538F00E94E21520F09523DD
:102AE00011F00C94D2150C94D81511240C941D16C9
:102AF0000E94FA1570F3959FC1F3950F50E0551F92
:102B0000629FF001729FBB27F00DB11D639FAA2742
:102B1000F00DB11DAA1F649F6627B00DA11D661F91
:102B2000829F2227B00DA11D621F739FB00DA11DB2
:102B3000621F839FA00D611D221F749F3327A00D6C
:102B4000611D231F849F600D211D822F762F6A2F08
:102B500011249F5750409AF0F1F088234AF0EE0F6D
:102B6000FF1FBB1F661F771F881F91505040A9F79A
:102B70009E3F510580F00C94D2150C941D165F3FBA
:102B8000E4F3983ED4F3869577956795B795F795D6
:102B9000E7959F5FC1F7FE2B880F911D969587954E
:102BA00097F9089597F99F6780E870E060E00895CD
:102BB0009FEF80EC089500240A9416161706180655
:102BC0000906089500240A94121613061406050631
:102BD0000895092E0394000C11F4882352F0BB0FC2
:102BE00040F4BF2B11F460FF04C06F5F7F4F8F4F25
:102BF0009F4F089557FD9058440F551F59F05F3F60
:102C000071F04795880F97FB991F61F09F3F79F00E
:102C100087950895121613061406551FF2CF469590
:102C2000F1DF08C0161617061806991FF1CF869512
:102C30007105610508940895E894BB2766277727F6
:102C4000CB0197F90895052E97FB1EF400940E947E
:102C50003A1657FD07D00E944D1607FC03D04EF4DC
:102C60000C943A1650954095309521953F4F4F4F13
:102C70005F4F089590958095709561957F4F8F4F28
:102C80009F4F08950E946F16A59F900DB49F900DC1
:102C9000A49F800D911D11240895A1E21A2EAA1B54
:102CA000BB1BFD010DC0AA1FBB1FEE1FFF1FA217FC
:102CB000B307E407F50720F0A21BB30BE40BF50BF9
:102CC000661F771F881F991F1A9469F76095709582
:102CD000809590959B01AC01BD01CF010895A29F05
:102CE000B001B39FC001A39F700D811D1124911DE0
:102CF000B29F700D811D1124911D08955058BB275E
:102D0000AA270E9496160C94E9150E94DB1538F04C
:102D10000E94E21520F039F49F3F19F426F40C9438
:102D2000D8150EF4E095E7FB0C94D215E92F0E941C
:102D3000FA1558F3BA17620773078407950720F04E
:102D400079F4A6F50C941C160EF4E0950B2EBA2F10
:102D5000A02D0B01B90190010C01CA01A0011124A1
:102D6000FF27591B99F0593F50F4503E68F11A164D
:102D7000F040A22F232F342F4427585FF3CF4695DE
:102D800037952795A795F0405395C9F77EF41F1600
:102D9000BA0B620B730B840BBAF09150A1F0FF0FCA
:102DA000BB1F661F771F881FC2F70EC0BA0F621FB6
:102DB000731F841F48F4879577956795B795F795A6
:102DC0009E3F08F0B0CF9395880F08F09927EE0F3B
:102DD0009795879508950E94FF160C94E9150E9417
:102DE000E21558F00E94DB1540F029F45F3F29F00E
:102DF0000C94D21551110C941D160C94D8150E94E8
:102E0000FA1568F39923B1F3552391F3951B550BEC
:102E1000BB27AA2762177307840738F09F5F5F4FAD
:102E2000220F331F441FAA1FA9F335D00E2E3AF0EC
:102E3000E0E832D091505040E695001CCAF72BD004
:102E4000FE2F29D0660F771F881FBB1F2617370755
:102E50004807AB07B0E809F0BB0B802DBF01FF2787
:102E600093585F4F3AF09E3F510578F00C94D2157D
:102E70000C941D165F3FE4F3983ED4F38695779546
:102E80006795B795F7959F5FC9F7880F911D969540
:102E9000879597F90895E1E0660F771F881FBB1F9C
:102EA000621773078407BA0720F0621B730B840B49
:102EB000BA0BEE1F88F7E09508950E94021688F07D
:102EC0009F5798F0B92F9927B751B0F0E1F0660FEE
:102ED000771F881F991F1AF0BA95C9F714C0B1302F
:102EE00091F00E941C16B1E008950C941C16672FF7
:102EF000782F8827B85F39F0B93FCCF3869577955E
:102F00006795B395D9F73EF4909580957095619546
:102F10007F4F8F4F9F4F08950E94411508F48FEF08
:102F200008950E944115880B990B0895991B79E02B
:102F300004C0991F961708F0961B881F7A95C9F749
:102F400080950895AA1BBB1B51E107C0AA1FBB1F98
:102F5000A617B70710F0A61BB70B881F991F5A9525
:102F6000A9F780959095BC01CD01089597FB072E98
:102F700016F4009407D077FD09D00E94A21707FC31
:102F800005D03EF4909581959F4F08957095619579
:102F90007F4F0895EE0FFF1F0590F491E02D0994E7
:102FA00081E090E0F8940C94D51710E0C2E6D0E0F0
:102FB00004C0FE010E94CA172196C336D107C9F783
:042FC000F894FFCFB3
:102FC400650159010000000000000000000000003D
:102FD40000000000000000000000000000000000ED
:102FE400000000000000000000002C01830000002D
:102FF4000040000000020000C800C80000A041001A
:103004000070420000003F6666663ECDCC2C3F0057
:1030140000003F0000003F0A0068000480410100F6
:10302400000001331375191A0C6A231B1C1D1E1F83
:10303400207274433B4138393A696B6C376F77249B
:103044006D6E7025262728292A3463646749000099
:10305400000000B5021B0C8D00FC02BE009C00B0F9
:1030640000000000002D02FD015D02D101F501E127
:1030740001D2010000000012011B0C5D0211016667
:10308400017E01F900626567696E00556E61626CCC
:103094006520746F20636F6D6D756E69636174650F
:1030A4002077697468204D50552D393235300043EE
:1030B4006865636B20636F6E6E656374696F6E73AE
:1030C4002C20616E642074727920616761696E2EB0
:1030D400000D0A005075742074686520726F626F69
:1030E4007420696E20746865207374617274206F33
:1030F4006620746865206D617A652C206C6F6F6B37
:10310400696E6720666F72776F726420696E746F80
:1031140020746865206D617A652028706172616C25
:103124006C656C20746F2074686520736964652015
:1031340077616C6C292E20416674657220796F75F5
:10314400206469642069742073656E6420274727AE
:0E315400006E616E00696E66006F76660000A8
:107E0000112484B714BE81FFF0D085E080938100F7
:107E100082E08093C00088E18093C10086E0809377
:107E2000C20080E18093C4008EE0C9D0259A86E02C
:107E300020E33CEF91E0309385002093840096BBD3
:107E4000B09BFECF1D9AA8958150A9F7CC24DD24C4
:107E500088248394B5E0AB2EA1E19A2EF3E0BF2EE7
:107E6000A2D0813461F49FD0082FAFD0023811F036
:107E7000013811F484E001C083E08DD089C08234E0
:107E800011F484E103C0853419F485E0A6D080C0E4
:107E9000853579F488D0E82EFF2485D0082F10E0AE
:107EA000102F00270E291F29000F111F8ED06801E7
:107EB0006FC0863521F484E090D080E0DECF843638
:107EC00009F040C070D06FD0082F6DD080E0C81688
:107ED00080E7D80618F4F601B7BEE895C0E0D1E017
:107EE00062D089930C17E1F7F0E0CF16F0E7DF06D8
:107EF00018F0F601B7BEE89568D007B600FCFDCFD4
:107F0000A601A0E0B1E02C9130E011968C91119780
:107F100090E0982F8827822B932B1296FA010C0160
:107F200087BEE89511244E5F5F4FF1E0A038BF0790
:107F300051F7F601A7BEE89507B600FCFDCF97BE46
:107F4000E89526C08437B1F42ED02DD0F82E2BD052
:107F50003CD0F601EF2C8F010F5F1F4F84911BD097
:107F6000EA94F801C1F70894C11CD11CFA94CF0C13
:107F7000D11C0EC0853739F428D08EE10CD085E9AC
:107F80000AD08FE07ACF813511F488E018D01DD067
:107F900080E101D065CF982F8091C00085FFFCCF94
:107FA0009093C60008958091C00087FFFCCF809118
:107FB000C00084FD01C0A8958091C6000895E0E648
:107FC000F0E098E1908380830895EDDF803219F02E
:107FD00088E0F5DFFFCF84E1DECF1F93182FE3DFCA
:107FE0001150E9F7F2DF1F91089580E0E8DFEE27F6
:047FF000FF270994CA
:027FFE00040479
:0400000300007E007B
:00000001FF